:400000000080002011000000790600007906000008B5044B1A6803F53F5302331A6000F04BFB00BFFA46004010B5054C237833B9044B13B10448AFF300800123237010BD33
:400040004081FF1F00000000A4210000084B10B51BB108490848AFF300800848036803B910BD074B002BFBD0BDE81040184700BF000000004481FF1FA4210000C880FF1F88
:40008000000000002DE9F0439FB062B600F004FC00F078FC00F0ECFC00F09EF900F0A8FD0021ADF874108DF87610642204A801F04CFC02A800F09EF9029B00242360BDF85E
:4000C0000C30A3802079403801F0D2F8804689466079403801F0CCF806460F4642464B464046494601F02AF98046894632463B463046394601F022F902460B46404649461A
:4001000000F06AFF00F040FE01F0C8FBC5B22A461DA9204600F034F8204600F011FE204600F014FE204600F017FE234609E01EAAD11811F8042C02FB05F201F8042C013390
:40014000DBB2022BF3D99DF8740000F051FB9DF8750000F0C3FB9DF8760000F035FC9DF874209DF875309DF876100091034904A801F0F4FB04A800F087FD9AE7A82100007F
:400180002DE9F0439FB00F4616464FF00008DFF8D090CDE90C8900240025CDE90E4500222E4BCDE91023CDE91245CDE91489CDE91623CDE918454FF00008DFF8A890CDE9E9
:4001C0001A89CDE91C23037990F8058093FBF6F001F04EF8CDE9060198FBF6F001F048F8CDE90801CDE90A4500250095019502950395049505951EE005EB450121441EABF4
:4002000003EBC10103EBC40353E9182351E9120101F094F802460B461EA901EBC50656E91E0100F0D9FE46E91E01013400E00024022CE1DD0135022DF9DD002408E01EAB59
:4002400003EBC40353E91E0101F028FB38550134022CF4DD1FB0BDE8F08300BF000066400000F03F0000F0BF00B583B000F04AFCC0B2564B1870564B93F90030B3F1FF3F77
:4002800008D1802840F09E800023504A5380504A137097E0062B40F08C804C4B9B7803F07F0398427ED1494803799DF8012063F345125B0863F300025B089DF8001063F30D
:4002C00086115B0863F341028DF801205B0803710A4663F3C7128DF80020437903F00302032A08D19DF8002042F002028DF800209B0843710DE09DF8002002F0FD0263F340
:4003000082025B0863F304128DF800205B082F4A53712E4B5B7903F00302032A09D19DF8002042F001028DF800209B08274A53710EE09DF8002063F3C3025B0863F34512A4
:400340005B0822494B7113466FF300038DF800301E494A799DF8013062F38203520862F3041352084A7162F3C3038DF801308B7903F07F038DF80430CB7903F07F038DF89A
:4003800005300B7A03F07F038DF802304B7A03F07F038DF803300F4A02AB53F8080D10609B889380FF220A4B1A700022074B5A8008E0591C064A1170044A134418715388D4
:4003C0001844508003B05DF804FB00BF5C81FF1FCC80FF1F7C81FF1F08B500F077FB00F09BFB034800F0C4FB00F0B6FB08BD00BF69020000024A1168016092888280704763
:400400007C81FF1FFEE700BFF0B40022174611E050F82760F3B226F0FF0608E001EB420511F812406D78A5550132013BDBB2002BF4D10137202FEBD9F0BC7047064B1B7887
:40044000DBB203F00701054A11701B09013213704422034B1A707047CF0100496E5800407658004008B50A46002101F06EFA08BD38B50823314A13801C2231490A70023151
:400480000B8002310A7002310B8002310A704FF49C712C4A118018222B490A7040F2E1400231088002310A7047F22F51274A1180192502321570022102F26A2211704FF04A
:4004C00040221370032102F500721170204A1278D2B220490A70204A138041F251221F4B1A8000240CE01E4B1B7803F0010343EA440404F003044FF4F07000F035FC013D92
:400500000DB1032CEFD115B90320FFF77BFF154B4FF480721A8007221A70002212490A704820023108701A700222033B1A700F4A137843F03F03137038BD00BF80400040BB
:40054000824000408C4000408E4000409440004008010049A14600402242004020420040254200400440004006400040A243004008B501F0DFF908BD38B572B62D4A137854
:4005800043F00403137000240CE02B4D630019194A0011462A44084691882858FFF762FF0134E4B2062CF0D924494FF09040FFF72BFF234A137843F0020313701032137832
:4005C00043F0020313701F4C237843F040032370A2F58632513A137843F010031370082219491A48FFF7C4FF0A2219491948FFF7BFFF082218491948FFF7BAFF0822184993
:400600001848FFF7B5FF184A137843F008031370164D61232B70FFF72BFF81232B700122134B1A70FFF70AFF0E2221461148FFF79FFF38BDE8460040B4210000840000488F
:4006400003500140A043004030090048C251004038090048F051004044090048125100404C09004822510040224300400048004004000840B043004008B501F02FF9036870
:400680000C2B00D1FEE7FEE708B5094B1A681044084BC31A802B02DC054B186005E001F01DF90C2303604FF0FF32104608BD00BFD080FF1F9082FF1F08B5104E104D16E02C
:4006C00029686B68AC68002204E051F8040B43F8040B0432A242F8D1E868002203E0002143F8041B04328242F9D11035013E002EE6D101F0F9F8FFF7C5FCFEE7010000007B
:400700004422000008B5104A104B1A60104A136843F40073136000230AE0032B03D80D4A52F8231000E00C490C4A42F8231001332F2BF2D90A4B1A780A4B1A70074A0A4BCE
:400740001A60FFF719FF08BD0004FA050CED00E014ED00E000000000790600000080FF1FBC760040C080FF1F08ED00E001BE704770B504460E46074B1D681F2802D900205B
:40078000FFF7F4FF04F01F04103455F8240045F8246070BD08ED00E038B504460D46072902D90020FFF7E2FF1F2C02D90020FFF7DDFF04F01F0000F1604000F564406D0172
:4007C000EDB2057038BD00BF024A137843F080031370704776650040014B1870704700BF05650040014B1870704700BF45650040014B1870704700BF25650040014B18703F
:40080000704700BF26640040014B1870704700BF85640040014B1878704700BF65640040014B1878704700BF5565004008B501E0FFF7F6FFFFF7EEFF10F0100FF8D108BD45
:4008400008B5134A137803F0C00343F0090313701F32137843F001031370FF20FFF7BCFFFF20FFF7BFFF3220FFF7C2FF0420FFF7C5FF0020FFF7C8FF00F07EFA054A13781C
:4008800043F01003137000F07BFAFFF7CFFF08BD766500409564004008B5054B1B7823B9FFF7CEFF0122024B1A70FFF78DFF08BD6681FF1F024A137843F0800313707047E1
:4008C00079650040014B1870704700BF09650040014B1870704700BF49650040014B1870704700BF29650040014B1870704700BF28650040014B1870704700BF8965004003
:40090000014B1878704700BF69650040014B1878704700BF5965004008B501E0FFF7F6FFFFF7EEFF10F0100FF8D108BD10B5134A137803F0C00343F009031370104C2378D2
:4009400043F001032370FF20FFF7BCFFFF20FFF7BFFF3220FFF7C2FF0420FFF7C5FF0020FFF7C8FF00F008FA237843F01003237000F006FAFFF7D0FF10BD00BF7965004081
:400980009965004008B5054B1B7823B9FFF7CEFF0122024B1A70FFF78DFF08BD6781FF1F024A137843F080031370704777640040014B1870704700BF05640040014B1870CA
:4009C000704700BF45640040014B1870704700BF25640040014B1870704700BF27650040014B1870704700BF87640040014B1878704700BF67640040014B1878704700BF4B
:400A00005564004008B501E0FFF7F6FFFFF7EEFF10F0100FF8D108BD08B5134A137803F0C00343F0090313701E32137843F001031370FF20FFF7BCFFFF20FFF7BFFF3220FD
:400A4000FFF7C2FF0420FFF7C5FF0020FFF7C8FF00F092F9054A137843F01003137000F08FF9FFF7CFFF08BD776400409764004008B5054B1B7823B9FFF7CEFF0122024BE0
:400A80001A70FFF78DFF08BD6881FF1F7222034B1A702A2202331A70704700BF8565004010B500F069F90446074A137843F0200313700232137843F01003137000F024F99C
:400AC000204600F05DF910BD9565004008B5054B1B7823B9FFF7DAFF0122024B1A70FFF7DFFF08BD6981FF1F014B1878704700BF46650040024B187800F07F00704700BF5E
:400B00006765004010B5FFF7F5FF0402FFF7ECFF204380B210BD00BF08B500F02DF9064B1A7842F001021A701A7802F0FE021A7000F026F908BD00BF96650040014B1B68D2
:400B40001864704708ED00E04001C0B2014B1870704700BF00E400E00122014B1A60704700E100E00122014B1A60704780E100E010B50446FFF7F6FF2046FFF7DFFF07200F
:400B8000FFF7E2FFFFF7E8FF10BD00BF08B509490120FFF7EDFD07210120FFF7FDFD0622054B1A70472210331A70022250331A7008BD00BFAD0C00002464004010B500F089
:400BC000DBF80446084A137843F0100313700223064A1360A2F5C072136000F0A3F8204600F0CEF810BD00BF9464004080E200E008B5054B1B7823B9FFF7C8FF0122024BB8
:400C00001A70FFF7DBFF08BD6A81FF1F10B4194B99885B889BB2994205D25A1E914214BF0022012206E0CA1A40F20714A24214BF00220122002AEAD1994207D10E4B1B7867
:400C400013F0040F02D10D4B187010E0B1F5847F00D300210A4B58540131064B9980064B1B7813F0020F02D00222064B1A6010BC704700BF6A81FF1F646400404B64004086
:400C80008481FF1F00E200E038B5074B1B782BB938BDFFF7BBFF0134A4B201E005460024285D0028F5D138BD6A81FF1F15E0114B1B889BB2B3F5847F02D300220D4B1A80D3
:400CC0000C4A13889BB20C49CB5CDBB20B490B7013889BB201339BB21380064B1B889BB2074A1288934204D0064B1B7813F0040FDDD070476C81FF1F8481FF1F4B64004092
:400D00006E81FF1F64640040054A137843F0100313701032137843F010031370704700BFA2430040054A137843F0080313701032137843F008031370704700BFA243004006
:400D4000014B1870704700BF77650040014B1870704700BF7A640040014B1870704700BF76640040000000000230800803D000BF01380046FCD17047EFF3108072B67047A1
:400D800080F31088704700BF2DE9F04F8BB004460D4600F055F8284B064693F900A00F46BAF1FF3F12D022462B462046294600F05FFD834650B94FF000084FF0000920467C
:400DC000294642464B4600F02BFD20B9304639460BB0BDE8F08F194A0123CDF820B0CDE90445CDE9024501920093BAF1000F15D042464B464046494600F0CAFBBAF1020F2A
:400E0000CDE906010CD100F069FD21230360089B63B9DDE906010BB0BDE8F08FCDE90689684600F0D1F80028F1D1ECE700F056FD089B0360EDE700BFD480FF1FE0210000F8
:400E40002DE9F0415F4E0C46B6460E407645054600F0988000290B46024674DD5FEA215E7FD0AEF2FF3EC3F313031EF0010F43F4801363D100273E4603EBD2710B444FEA81
:400E80006E0E520016204FF4001174189C424FEAD2754FEA420202DC1B1B66180F44013805EB43034FEA5101EFD1844620244FF0004109E020D003EBD275013C4FEA510170
:400EC0002B444FEA420220D09E4201EB0C05F1DA002D05EB010C09DBB0469542A3EB060300D9013B4646521B0844E4E7BCF1000FF2DB06F10108F0E7954217D8002D05EB94
:400F0000010C49DB98460023ECE7134310D140087B1003F17F5303F50013FA0703EB0E57394648BF40F00040BDE8F0813346C2E7411C35D000F001031844E8E75B0003EB85
:400F4000D273520096E721F000460643ECD079BB8E46D30AAEF1150E5205002BF9D0DD0221D4002100E001465B00DC0201F10100F9D5C0F1200422FA04F42343C1EB0E0EE2
:400F800082406EE702460B4600F0D8F92A46234600F022F8BDE8F081BCF1000FA9DAB1E701372046B4E720244FF0FF310020E2E702460B4600F00EF802460B4600F0E8FA21
:400FC000B2E700BF0000F07F0020704781F0004102E000BF83F0004330B54FEA41044FEA430594EA050F08BF90EA020F1FBF54EA000C55EA020C7FEA645C7FEA655C00F0CA
:40100000E2804FEA5454D4EB5555B8BF6D420CDD2C4480EA020281EA030382EA000083EA010180EA020281EA0303362D88BF30BD11F0004F4FEA01314FF4801C4CEA113143
:4010400002D0404261EB410113F0004F4FEA03334CEA133302D0524263EB430394EA050F00F0A780A4F10104D5F1200E0DDB02FA0EFC22FA05F2801841F1000103FA0EF257
:40108000801843FA05F359410EE0A5F120050EF1200E012A03FA0EFC28BF4CF0020C43FA05F3C01851EBE37101F0004507D54FF0000EDCF1000C7EEB00006EEB0101B1F551
:4010C000801F1BD3B1F5001F0CD349085FEA30004FEA3C0C04F101044FEA445212F5800F80F09A80BCF1004F08BF5FEA500C50F1000041EB045141EA050130BD5FEA4C0CA2
:40110000404141EB010111F4801FA4F10104E9D191F0000F04BF01460020B1FA81F308BF2033A3F10B03B3F120020CDA0C3208DD02F1140CC2F10C0201FA0CF021FA02F1CB
:401140000CE002F11402D8BFC2F1200C01FA02F120FA0CFCDCBF41EA0C019040E41AA2BF01EB0451294330BD6FEA04041F3C1CDA0C340EDC04F11404C4F1200220FA04F08A
:4011800001FA02F340EA030021FA04F345EA030130BDC4F10C04C4F1200220FA02F001FA04F340EA0300294630BD21FA04F0294630BD94F0000F83F4801306BF81F48011EA
:4011C0000134013D4EE77FEA645C18BF7FEA655C29D094EA050F08BF90EA020F05D054EA000C04BF1946104630BD91EA030F1EBF0021002030BD5FEA545C05D1400049418B
:4012000028BF41F0004130BD14F580043CBF01F5801130BD01F0004545F0FE4141F470014FF0000030BD7FEA645C1ABF194610467FEA655C1CBF0B46024650EA013406BF67
:4012400052EA033591EA030F41F4002130BD00BF90F0000F04BF0021704730B54FF4806404F132044FF000054FF0000150E700BF90F0000F04BF0021704730B54FF480645A
:4012800004F1320410F0004548BF40424FF000013EE700BF42004FEAE2014FEA31014FEA02701FBF12F07F4393F07F4F81F06051704792F0000F14BF93F07F4F704730B580
:4012C0004FF4607401F0004521F0004120E700BF50EA010208BF704730B54FF000050AE050EA010208BF704730B511F0004502D5404261EB41014FF4806404F132045FEA53
:40130000915C3FF4DCAE4FF003025FEADC0C18BF03325FEADC0C18BF033202EBDC02C2F1200300FA03FC20FA02F001FA03FE40EA0E0021FA02F11444C1E600BF70B54FF03B
:40134000FF0C4CF4E06C1CEA11541DBF1CEA135594EA0C0F95EA0C0F00F0DEF82C4481EA030621EA4C5123EA4C5350EA013518BF52EA033541F4801143F4801338D0A0FB02
:4013800002CE4FF00005E1FB02E506F00042E0FB03E54FF00006E1FB03569CF0000F18BF4EF0010EA4F1FF04B6F5007F64F5407404D25FEA4E0E6D4146EB060642EAC621DA
:4013C00041EA55514FEAC52040EA5E504FEACE2EB4F1FD0C88BFBCF5E06F1ED8BEF1004F08BF5FEA500E50F1000041EB045170BD06F0004646EA010140EA020081EA0301A2
:40140000B4EB5C04C2BFD4EB0C0541EA045170BD41F480114FF0000E013C00F3AB8014F1360FDEBF002001F0004170BDC4F10004203C35DA0C341BDC04F11404C4F1200599
:4014400000FA05F320FA04F001FA05F240EA020001F0004221F0004110EBD37021FA04F642EB06015EEA430E08BF20EAD37070BDC4F10C04C4F1200500FA04F320FA05F0C9
:4014800001FA04F240EA020001F0004110EBD37041F100015EEA430E08BF20EAD37070BDC4F1200500FA05F24EEA020E20FA04F301FA05F243EA020321FA04F001F0004109
:4014C00021FA04F220EA020000EBD3705EEA430E08BF20EAD37070BD94F0000F0FD101F00046400041EB010111F4801F08BF013CF7D041EA060195F0000F18BF704703F0F9
:401500000046520043EB030313F4801F08BF013DF7D043EA0603704794EA0C0F0CEA135518BF95EA0C0F0CD050EA410618BF52EA4306D1D181EA030101F000414FF00000DD
:4015400070BD50EA410606BF1046194652EA430619D094EA0C0F02D150EA013613D195EA0C0F05D152EA03361CBF104619460AD181EA030101F0004141F0FE4141F470010D
:401580004FF0000070BD41F0FE4141F4780170BD70B54FF0FF0C4CF4E06C1CEA11541DBF1CEA135594EA0C0F95EA0C0F00F0A7F8A4EB050481EA030E52EA03354FEA01310F
:4015C00000F088804FEA03334FF0805545EA131343EA12634FEA022245EA111545EA10654FEA00260EF000419D4208BF964244F1FD0404F5407402D25B084FEA3202B61AB0
:4016000065EB03055B084FEA32024FF480104FF4002CB6EB020E75EB030E22BFB61A754640EA0C005B084FEA3202B6EB020E75EB030E22BFB61A754640EA5C005B084FEAFC
:401640003202B6EB020E75EB030E22BFB61A754640EA9C005B084FEA3202B6EB020E75EB030E22BFB61A754640EADC0055EA060E18D04FEA051545EA16754FEA06164FEAA8
:40168000C30343EA52734FEAC2025FEA1C1CC0D111F4801F0BD141EA00014FF000004FF0004CB6E711F4801F04BF01430020B4F1FD0C88BFBCF5E06F3FF6AFAEB5EB030C4F
:4016C00004BFB6EB020C5FEA500C50F1000041EB045170BD0EF0004E4EEA113114EB5C04C2BFD4EB0C0541EA045170BD41F480114FF0000E013C90E645EA060E8DE60CEA4F
:40170000135594EA0C0F08BF95EA0C0F3FF43BAF94EA0C0F0AD150EA01347FF434AF95EA0C0F7FF425AF104619462CE795EA0C0F06D152EA03353FF4FDAE1046194622E7C7
:4017400050EA410618BF52EA43067FF4C5AE50EA41047FF40DAF52EA43057FF4EBAE12E74FF0FF3C06E000BF4FF0010C02E000BF4FF0010C4DF804CD4FEA410C7FEA6C5C4A
:401780004FEA430C18BF7FEA6C5C1BD001B050EA410C0CBF52EA430C91EA030F02BF90EA020F0020704710F1000F91EA030F58BF994208BF90422CBFD8176FEAE37040F092
:4017C000010070474FEA410C7FEA6C5C02D150EA013C07D14FEA430C7FEA6C5CD6D152EA033CD3D05DF8040B704700BF8446104662468C461946634600E000BF01B5FFF713
:40180000B7FF002848BF10F1000F01BD4DF808EDFFF7F4FF0CBF012000205DF808FB00BF4DF808EDFFF7EAFF34BF012000205DF808FB00BF4DF808EDFFF7E0FF94BF0120C8
:4018400000205DF808FB00BF4DF808EDFFF7CEFF94BF012000205DF808FB00BF4DF808EDFFF7C4FF34BF012000205DF808FB00BF4FEA410C7FEA6C5C02D150EA013C0AD16F
:401880004FEA430C7FEA6C5C02D152EA033C02D14FF0000070474FF0010070474A0011D212F5001211D20DD56FF47873B3EB62520ED44FEAC12343F0004343EA505323FA54
:4018C00002F070474FF00000704750EA013002D14FF0FF3070474FF000007047014B1868704700BF3881FF1F0E4B70B51E460E4C0025E41AA410A54204D056F82530984787
:401900000135F8E700F08CFC084B094C1E46E41AA4100025A54204D056F8253098470135F8E770BD2C2200002C2200002C2200003422000010B5431E0A44914204D011F854
:40194000014B03F8014FF8E710BD03460244934202D003F8011BFAE7704700000EB400B54FF402719CB0ADF814106FF00041049107914FF6FF711DAB02900690084853F8F0
:40198000042BADF81610006802A9019300F064F8029B00221A701CB05DF804EB03B070473881FF1F2DE9F0478E6882469E420C46914698463ED88A8912F4906F3AD02568E9
:4019C000096902236F1A656905EB450595FBF3F57B1C43449D4238BF1D4653050FD5294600F040FB064698B13A462169FFF7A2FFA38923F4906343F08003A38113E02A4671
:401A000000F08EFB064670B92169504600F0DEFA0C23CAF80030A3894FF0FF3043F04003A381BDE8F08726613E44266046466561ED1BA560464528BF4646494632462068E4
:401A400000F0A8FAA36800209B1BA36023681E442660BDE8F08700002DE9F04F9DB003938B8980461C060D4616460DD50B695BB9402100F0F7FA2860286118B90C23C8F801
:401A80000030CDE040236B610023099320238DF82930DFF89CB130238DF82A3037463C4614F8013B1BB9B7EB060910D003E0252BF9D02746F3E74B46324629464046FFF701
:401AC00071FF013000F0A780099B4B4409933B78002B00F0A08000234FF0FF3204930793059206938DF853301A930126052221784E4800F041FA671C049B38B14B4A3C46FE
:401B0000801A06FA00F018430490EFE7D90644BF20228DF853201A0744BF2B228DF8532022782A2A03D0079A00210A200BE0039A111D12680391002A10DA524243F0020083
:401B4000079204900BE027463B780134303B092B03D800FB02320121F5E701B107923B782E2B1ED17B782A2B0AD1039B02371A1D1B680392002BB8BF4FF0FF33059310E027
:401B8000002319460593781C0A2407463A780130303A092A03D804FB01210123F5E703B1059103223978224800F0E6F940B14023CBEB000003FA00F0049B0137184304906A
:401BC000397806221B487E1C8DF8281000F0D4F988B1194B33B9039B073323F007030833039314E003AB00932A46144B04A94046AFF3008007E003AB00932A460F4B04A94E
:401C0000404600F093F8B0F1FF3F824603D0099B5344099342E7AB895B0601D4099801E04FF0FF301DB0BDE8F08F00BFEA210000F0210000F421000000000000A519000030
:401C40002DE9F04791461F460A698B6806469342B8BF1346C9F8003091F843200C46DDF8208012B10133C9F800302368990642BFD9F800300233C9F80030256815F0060509
:401C800010D104F1190A07E00123524639463046C04701301AD00135E368D9F800209B1A9D42F1DB94F843302268003318BF012392060FD5E118302081F843005A1C94F865
:401CC00045102244023382F8431003E04FF0FF30BDE8F08704F1430239463046C0470130F4D02268D9F80050E36802F00602042A08BF5D1B2269A3680CBF25EAE575002543
:401D00009342C4BF9B1AED184FF000091A344D4509D00123224639463046C0470130D5D009F10109F3E70020BDE8F0872DE9F04317460A7E85B06E2A984606460C460C9BFA
:401D400001F1430E00F0AE8011D8632A22D009D8002A00F0BB80582A40F0CA8081F84520834955E0642A1ED0692A1CD0C0E0732A00F0B08009D86F2A2ED0702A40F0B880B7
:401D80000A6842F020020A603EE0752A24D0782A3AD0ADE01A6801F14205111D1960136884F84230A8E021681A6811F0800F02D0111D196008E011F0400F02F104011960F9
:401DC00002D0B2F9003000E01368002B3CDA2D225B4284F8432037E021681A6811F0800F02D0111D196007E011F0400F02F10401196001D0138800E01368227E5C496F2A57
:401E000014BF0A2208221BE078225A4984F845202268186812F0800F00F104051D6003D1550601D5038800E00368D00744BF42F0200222601BB9226822F02002226010227D
:401E4000002084F8430001E049490A226568002DA56008DB206820F0040020602BB9002D7DD175460CE0002B79D07546B3FBF2F002FB1033CB5C05F8013D03460028F5D148
:401E8000082A0BD12368DA0708D5236962689A42DEBF302305F8013C05F1FF35C5EB0E0323612EE008681A6810F0800F496903D0101D1860136808E010F0400F02F104009E
:401EC0001860136801D0198000E0196000232361754616E01A68111D1960156800216268284600F049F808B1401B6060636804E004F1420584F8422001232361002384F8C0
:401F00004330CDF800803B4603AA21463046FFF797FE013002D14FF0FF3026E023692A4639463046C0470130F5D023689B0710D5002504F1190907E001234A46394630460F
:401F4000C0470130E7D00135E368039A9B1A9D42F2DBE068039B9842B8BF184605E00B7804F1420584F842308AE705B0BDE8F083FB2100000C22000010B5C9B202449042EC
:401F8000034605D01C7801308C42F8D1184610BD002010BD884210B501EB020301D8421E0BE09842FBD28118D21AD34204D013F8014D01F8014DF8E710BD994204D011F8D2
:401FC000014B02F8014FF8E710BD000038B50546002944D051F8043C0C1F002BB8BFE41800F0D4F81E4A1368114613B96360146030E0A3420DD92268A018834201BF1868BD
:402000005B681218226063600C6023E0A24203D813465A68002AF9D118681918A1420BD12168014458188242196013D110685268014419605A600DE002D90C232B6009E04D
:4020400021686018824201BF106852680918216062605C602846BDE8384000F098B838BD7881FF1F70B5CD1C25F0030508350C2D38BF0C25002D064601DBA94202D90C239F
:40208000336046E000F082F8234B1C681A462146A1B10B685B1B0ED40B2B03D90B60CC18CD501EE08C420BBF63684B681360636018BF0C4615E00C464968E9E7174C236880
:4020C0001BB9304600F052F820602946304600F04DF8431C18D0C41C24F00304A0420DD12560304600F053F804F10B00231D20F00700C31A0ED05A42E25070BD211A3046CC
:4021000000F034F80130EBD10C233360304600F03EF8002070BD00BF7881FF1F7481FF1FF8B5074615460E4621B91146BDE8F840FFF798BF1AB9FFF749FF2846F8BD00F0DA
:4021400027F885420ED929463846FFF78BFF044650B131462A46FFF7EDFB31463846FFF735FF01E03046F8BD2046F8BD38B5064C0023054608462360FEF786FA431C02D1AA
:40218000236803B12B6038BD8C82FF1F7047704751F8040C0028BEBF091851F8043CC018043870470000000025642025642025640A000000005100401000305100404000CC
:4021C00000000140001000140140000800400140000A004C01400002005001402000000073717274000000004300232D302B2000686C4C0065666745464700303132333470
:402200003536373839414243444546003031323334353637383961626364656600000000F8B500BFF8BC08BC9E4670474D00000005070000F8B500BFF8BC08BC9E4670473D
:402240002900000058220000C880FF1F78000000500100000000000000000000FF0000009082FF1F010000000000000000000000000000000000000000000000000000005C
:402280000000000000000000E82100000000000000000000000000000000000000000000000000000000000000000000000000000000000000000000000000000000000015
:4022C0000000000000000000D880FF1F0000000000000000000000000000000000000000000000000000000000000000000000000000000000000000000000000000000068
:40230000000000000000000000000000000000000000000000000000000000000000000000000000000000000000000000000000000000000000000000000000000000009D
:40234000000000000000000000000000000000000000000000000000000000000000000000000000000000000000000000000000000000000000000000000000000000005D
:40238000000000000000000000000000000000000000000000000000000000000000000000000000000000000000000000000000000000000000000000000000000000001D
:4023C00000000000000000000000000000000000000000000000000000000000000000000000000000000000000000000000000000000000000000000000000000000000DD
:020000040003F7
:0200000480007A
:40000000085200400364004003650040010301406B040140440501404E0601404B07014014090140530A0140360B0140010D01404E1401404C1501406716014051170140B7
:400040006618014047190140081B014004400140054101400642014004430140044401400745014007460140014701400A48014011490140054C0140084D01400A50014081
:400080000151014008240904108011A06093615579087C02840F850D870D85728738890D82010410060C070808200C1C0D5C0E020F0312031561170E18141C091E101F2382
:4000C000231C2410280C29612A112B16301F310F331A3420356039203B0A3E103F104002450449FF4A074BFF4C404D204EF04F05500854015604580459045A045B045C334E
:400100005D335F01604061A8624063208411862288448A228C258D208E52910B93149512970899059B089C079ED0A080A208A807A903AB28B20FB33CB503B6F0B808BE04AB
:40014000C060C103C5D2C710C823C9FFCAFFCBFFCDA0CF04D018D405D804D904DA04DB04DC11DD10DF01E040E2C0E440E540E6C0E8C0EAC0ECC0EEC0004803080480050875
:400180000604071A08800A400B080C400E021228140416C017201A441D081E0220C4220825102720288029202C043288371A38403B043E80400445044A204B044D024E14AF
:4001C000514052805702580259105A045B405D015E085F4062017D087E1080028150830888408B149E01C0E7C28BC456CA25CCEACE1AD044D220D6DFD801E001E220E605CD
:4002000001100580061009E70B180D1C0FE111FF1206153C160517C219181A0A1FE321442210250829C02A092F0430033204331F340C3538361037C03B083E554003460209
:40024000480449FF4AFF4BFF4DA05008580459045A045B045C405D015F016080624063406440664068406A406C406E408202860187018A018E148F019410A101A701AA023D
:40028000AE08B003B204B301B408B610BE01D280D405D804D904DB04DC10DF01002A02800302040408020A100B800EA00F04100211201510168019511A181D061F50202006
:4002C000240426082709284029082C202E012F053480360A372038803A043C403E023F184508564059425A046D106E806F047002810284108D0192609480950196089760DA
:40030000984099029D089E44A118A302A604A880A910AC04AD20B208B740C02FC274C453CAF3CCF0CEFAD040D60BE009E640E801EE0384048501919095019620970A992080
:400340009B189C119D409E02A708A904AB04AD80B221B702E001EA10EC8003010404060A07020A140B010F021010140816041E01200222042A0132013303341E3E043F040D
:40038000580459045B045C025F018101840A864487018A208B018E108F0191209608973499089A209B149C439D049E0C9F0AA101A210A443A604A880A910AA05AB0AAC03D1
:4003C000AE04B2C0B302B430B53CB60FB701B808BA80BE10BF40C012C103C5B0C60CC70EC816C9FFCAFFCBFFCEF0CF44D00CD804D904DA04DC23DD03DF01E6C0EA40EB0260
:40040000012003100612070408050B020C100D881048154116201720182019201D8C1F502010271A2C042F4834413540371839903B0A3D603E013F84459046204F0256080E
:40044000574068086990801081508208832087108A108B058C109620C0E6C2EDC4FACAA0CCF0CEFFD070E004E280E4228E100201060212041E042A0A300232013404360859
:400480003B803E10580459045C415F0181088504860289738A018B0C8C048D1F8F609008917F951C96019763990C9A02A101A404A502A804A903AF23B004B12CB201B30F4E
:4004C000B402B510B608B740B980BB0ABE54BF10C030C102C5D2C701C813C9FFCAFFCBFFCDA0CF04D018D602D712D804D904DA04DB04DC44DD41DF01E040E2C0E440E5401D
:40050000E6C0E8C0EAC0ECC0EEC00108024005080610070509410D200E600F04120415101620188619081C201D021E0A1F0223022450254027082E012F16360A3722382091
:400540003A203C503E0A3F10452046104D014F0456045F086C106D106F017420760A772084108E019241932894E6951197109A409B049D089E069F20A101A218A420A5020D
:40058000A606AB02AC08AE01B004B304B702C0ECC279C462CAF0CCE0CEF0D060D640E210EA020102070208C70C410EAA13031402161518841A4A1B0328C730203207330105
:4005C00034C0350236183E404064410542034401460C47E0482449FF4AFF4BFF4C624DA04EF04F41500C5280580459045A045B045C045D145F016640670269106A306B10F5
:400600006D106E106F1281108404860A87108B088C088E049104921A93029507960199059B029D07A410A802A901AA05AB02B01EB110B30FB401B908BE10BF04C003C620F8
:40064000C808C9FFCAFFCBFFCDA0D008D418D604D804D904DA04DB04DC10DD40DF01E080E240E340E440E640E840EA40EC40EE400312042007020AA00D280F0810041210DC
:4006800015101A841B011DA81F15210423402504261027102804291030083101324033123511380239203A043D083F0241044480458247084E024F10511052105501568064
:4006C0005B0160066201680576408104831089108E01926094C095019605975E980299149B0D9C809D089E869F20A208A302A425A616A704AA80B004C0C5C26CC446CA048B
:40070000CCAFCEC7D0D2D230D601D80DE004E640EC040340050808670C210E1212081444161217C01B801D301F0A211123022417286529242A122B022D322F053010318068
:4007400032603330340F3540370F38203E103F1140024602480449FF4AFF4BFF4DA05008580459045A045C025D025F016080624063406440664068406A406C406E408204C5
:40078000830485028B088F04920297039E01A201A604A708B002B102B201B30CB404B501BE14BF04C050C106C5D2C701C813C9FFCAFFCBFFCDA0CF04D018D280D405D804C7
:4007C000D904DA04DB04DC22DD22DF01E040E2C0E440E540E6C0E8C0EAC0ECC0EEC001020480056009020B020C010D080F80102012401718188019021A241D241F05200445
:40080000239025402642272429042D802E202F403020311834143640380439903A403B023E023F0445204820495151085308574059015A045B80710281808B048E029190C7
:400840009620970A981499209A029B189C019D40A708AA02B010C0C8C239C46CCAB2CC72CECFD020D20CD60BE420E820AB04AD40AF10B360B620E809ECC0EE203080330839
:400880003710CC7083109F10A480A708E220522056208A20A480A708D4608E209E20A480A7087B027F01DC01DE04634066088F019702A702D803E002830287408E089740B1
:4008C0009E08A702E0088280064007405A8080808C80A480A708C020D480E680222076407880866087088E4096809880A708AB40AE40C810DC80DE20E210E810EC805F21EE
:400900008F019A80D605E408700276809A80A002AB20AC02DC01DE04001F01010A1B0C0C0D01101711011A131B011C05003F000000FFFF00FF00000008000208080008007D
:4009400000000000002F2F002400000000A2A200A0000000000000000000000000000000000000000000000000000000000000000000000000000000000000000000000011
:400980000000000000000000000000000000000000000000000000000000000000000000000000000000000000000000000000000000000000000000000000000000000037
:4009C00000000000000000000000000000000000000000000000000000000000000000000000000000000000000000000000000000000000000000000000000000000000F7
:400A000000000000000000000000000000000000000000000000000000000000000000000000000000000000000000000000000000000000000000000000000000000000B6
:400A40000000000000000000000000000000000000000000000000000000000000000000000000000000000000000000000000000000000000000000000000000000000076
:0200000490006A
:0400000000004005B7
:0200000490105A
:04000000BC90ACAF55
:0200000490303A
:02000000452E8B
:0200000490402A
:4000000000000000000000000000000000000000000000000000000000000000000000000000000000000000000000000000000000000000000000000000000000000000C0
:400040000000000000000000000000000000000000000000000000000000000000000000000000000000000000000000000000000000000000000000000000000000000080
:400080000000000000000000000000000000000000000000000000000000000000000000000000000000000000000000000000000000000000000000000000000000000040
:4000C0000000000000000000000000000000000000000000000000000000000000000000000000000000000000000000000000000000000000000000000000000000000000
:0200000490501A
:0C00000000012E16106900012E265597F5
:00000001FF