:400000000080002011000000990900009909000008B5044B1A6803F53F5302331A6000F0DBFC00BFFA46004010B5054C237833B9044B13B10448AFF300800123237010BD5C
:400040008881FF1F0000000098410000084B10B51BB108490848AFF300800848036803B910BD074B002BFBD0BDE81040184700BF000000008C81FF1F98410000C880FF1FD0
:400080000000000010B582B002AB03E903009DF8013013F0010F0ED0012414705470FF239370204600F006FF204600F07FFF022000F0FAFF0DE0FF231370537001249470AC
:4000C000022000F0F7FE022000F070FF204600F0EBFFC82000F08CFEC82000F005FFC82000F07EFF054C064A0649204602F0B0FC204600F00DFE02B010BD00BFA481FF1FCF
:40010000A0410000A44100002DE9F04FA9B00024ADF894408DF89640ADF890408DF89240ADF88C408DF88E40642221460AA802F016F862B600F0B0FE00F02AFF00F0A6FFC0
:4001400000F0C0FA00F098FD41F2883000F0A0FC08A800F0C5FA08982690BDF82430ADF89C309DF8983003F0BF0364F3C7138DF8983008A800F0B4FA08982690BDF824306D
:40018000ADF89C30002306E028AA1A44002102F8101C0133DBB2022BF6D9002C00F01D819DF8993013F0100F01D084F0010413F0030340F00A819DF89C00403801F046FA6F
:4001C000804689469DF89D00403801F03FFA06460F4642464B464046494601F09DFA8046894632463B463046394601F095FA02460B464046494601F0DDF800F0B3FF0646DA
:400200000F460022844B01F017FD40B17EA3D3E900233046394601F07FFA06460F4600227E4B3046394601F077FA06460F4624AA25A926A800F0F8F89DF89030012B03D100
:40024000012000F037FE06E09DF88C30012B02D1012000F02FFE9DF89130012B03D1012000F0A4FE06E09DF88D30012B02D1022000F09CFE9DF89230012B03D1022000F06F
:4002800013FF06E09DF88E30012B02D1012000F00BFF9DF894509DF895A09DF8960001F0C5F980468946504601F0C0F942464B4600F012FF80468946284601F0B7F94246A1
:4002C0004B4600F009FF01F0D7FC8146002518E0E62090FBF9F028AB03EB050818F80C3C03FB00F0C0B208F80C0C01F0AFF932463B4601F011FA01F0E7FC08F80C0C013505
:40030000EDB2022DE4D9464B1B68ADF828301B0C8DF82A300AA800F0FBFC9DF89430E62B07D89DF89530E62B03D89DF89630E62B06D900238DF894308DF895308DF89630A7
:400340009DF8940000F054FD9DF8950000F0CCFD9DF8960000F044FE9DF895509DF896809DF890909DF891A09DF892B09DF8940001F06CF926A3D3E9002301F0F7FA064607
:400380000F46CDF818B0CDF814A0CDF81090404601F05CF91EA3D3E9002301F0E7FACDE90201284601F052F919A3D3E9002301F0DDFACDE9000132463B461A490AA802F0C2
:4003C00047FB0AA800F0A4FC0EE06BB124AA28AB13E90300FFF756FE06E09DF8993013F0080F01D084F00104002307E028AA1A4412F8101C02F8141C0133DBB2022BF5D987
:40040000B7E600BFAFF30080176CC1166CC1E63F0000000000E06F40000050400000903FA8410000AC4100002DE9F04798B006460C4615460022444BCDE90623002200236B
:40044000CDE908230022414BCDE90A2300204049CDE90C010FF2E009D9E90089CDE90E89CDE91023CDE9120135A1D1E90001CDE91401CDE916233079403801F04FFD074674
:400480007079403801F04AFD0397049000230593002700970197029728E007EB4703334418AA02EBC30353E9128902EB860353F8540C01F0DDF842464B4601F02DF98046E7
:4004C000894618AB03EB870A5AF8600C01F0D0F842464B4600F06EFF01F016FC4AF8600C013600E00026022ED7DD0137022FF9DD00261CE018AB03EB860353F8607C002149
:40050000384601F0CBFD10B10123AB5509E00021384601F0A5FD10B1FF23AB5501E00023AB5527F0004001F0C3FDA0550136022EE0DD18B0BDE8F087AA4C58E87AB6EBBF88
:40054000AA4C58E87AB6EB3F0000F03F000066400000E0BF00B583B000F018FBC0B2564B1870564B93F90030B3F1FF3F08D1802840F09E800023504A5380504A137097E0BF
:40058000062B40F08C804C4B9B7803F07F0398427ED1494803799DF8012063F345125B0863F300025B089DF8001063F386115B0863F341028DF801205B0803710A4663F347
:4005C000C7128DF80020437903F00302032A08D19DF8002042F002028DF800209B0843710DE09DF8002002F0FD0263F382025B0863F304128DF800205B082F4A53712E4BE2
:400600005B7903F00302032A09D19DF8002042F001028DF800209B08274A53710EE09DF8002063F3C3025B0863F345125B0822494B7113466FF300038DF800301E494A798B
:400640009DF8013062F38203520862F3041352084A7162F3C3038DF801308B7903F07F038DF80430CB7903F07F038DF805300B7A03F07F038DF802304B7A03F07F038DF819
:4006800003300F4A02AB53F8080D10609B889380FF220A4B1A700022074B5A8008E0591C064A1170044A1344187153881844508003B05DF804FB00BF0882FF1FCC80FF1F72
:4006C0002882FF1F08B500F045FA00F069FA034800F092FA00F084FA08BD00BF55050000024A116801609288828070472882FF1FFEE700BFF0B40022174611E050F8276098
:40070000F3B226F0FF0608E001EB420511F812406D78A5550132013BDBB2002BF4D101371D2FEBD9F0BC7047064B1B78DBB203F00701054A11701B09013213704422034B43
:400740001A707047CF0100496E5800407658004008B50A46002101F002FD08BD38B50823314A13801C2231490A7002310B8002310A7002310B8002310A704FF49C712C4A34
:40078000118018222B490A7040F2E1400231088002310A7047F22F51274A1180192502321570022102F26A2211704FF040221370032102F500721170204A1278D2B22049DC
:4007C0000A70204A138041F251221F4B1A8000240CE01E4B1B7803F0010343EA440404F003044FF4F07000F067FC013D0DB1032CEFD115B90320FFF77BFF154B4FF480728E
:400800001A8007221A70002212490A704820023108701A700222033B1A700F4A137843F03F03137038BD00BF80400040824000408C4000408E4000409440004008010049D9
:40084000A14600402242004020420040254200400440004006400040A243004008B501F073FC08BD38B572B6384A137843F00403137000240CE0364D630019194A001146AB
:400880002A44084691882858FFF762FF0134E4B2072CF0D900240BE02D49A3001819420088188022416B006BFFF7D8FF0134E4B2002CF1D027494FF09040FFF71BFF264A4D
:4008C000137843F0020313701032137843F002031370224C237843F040032370A2F58632513A137843F01003137008221C491D48FFF7B4FF08221C491C48FFF7AFFF08228C
:400900001B491C48FFF7AAFF08221B491B48FFF7A5FF0A221A491B48FFF7A0FF1A4A137843F008031370194D61232B70FFF716FF81232B700122164B1A70FFF7F5FE0E2298
:4009400021461448FFF78AFF38BD00BFE8460040C44100007800004803500140A0430040E408004802510040EC080048C2510040F408004812510040FC080048225100405B
:400980000409004830510040224300400048004004000840B043004008B501F0A9FB03680C2B00D1FEE7FEE708B5094B1A681044084BC31AB3F5004F02DC054B186005E04D
:4009C00001F096FB0C2303604FF0FF32104608BDD080FF1F4083FF1F08B5104E104D16E029686B68AC68002204E051F8040B43F8040B0432A242F8D1E868002203E0002122
:400A000043F8041B04328242F9D11035013E002EE6D101F073FBFFF777FBFEE7010000009043000008B5104A104B1A60104A136843F40073136000230AE0032B03D80D4A64
:400A400052F8231000E00C490C4A42F8231001332F2BF2D90A4B1A780A4B1A70074A0A4B1A60FFF7FFFE08BD0004FA050CED00E014ED00E000000000990900000080FF1F0D
:400A8000BC760040C080FF1F08ED00E001BE704710B5044605E0084B186800F00DFBA4F50044B4F5004FF6D8034B586800FB04F000F002FB10BD00BFD480FF1F70B5044662
:400AC0000E46074B1D681F2802D90020FFF7DEFF04F01F04103455F8240045F8246070BD08ED00E038B504460D46072902D90020FFF7CCFF1F2C02D90020FFF7C7FF04F0BB
:400B00001F0000F1604000F564406D01EDB2057038BD00BF7222034B1A702A22013B1A70704700BF8665004010B500F0CDFA0446074A137843F020031370013A137843F0A3
:400B40001003137000F024F9204600F0C1FA10BD9665004008B5054B1B7823B9FFF7DAFF0122024B1A70FFF7DFFF08BD1282FF1F014B1878704700BF46640040024B187810
:400B800000F07F00704700BF6565004010B5FFF7F5FF0402FFF7ECFF204380B210BD00BF08B500F091FA064B1A7842F001021A701A7802F0FE021A7000F08AFA08BD00BFAF
:400BC00096640040014B1B681864704708ED00E04001C0B2014B1870704700BF00E400E00122014B1A60704700E100E00122014B1A60704780E100E010B50446FFF7F6FFE7
:400C00002046FFF7DFFF0020FFF7E2FFFFF7E8FF10BD00BF08B509490120FFF74FFF07210120FFF75FFF0622054B1A70472210331A7002224F331A7008BD00BF350D0000DB
:400C40002964004010B500F03FFA0446084A137843F0100313700223064A1360A2F5C072136000F0A3F8204600F032FA10BD00BF9864004080E200E008B5054B1B7823B912
:400C8000FFF7C8FF0122024B1A70FFF7DBFF08BD1482FF1F10B4194B99885B889BB2994205D25A1E914214BF0022012206E0CA1A40F20714A24214BF00220122002AEAD1AE
:400CC000994207D10E4B1B7813F0040F02D10D4B187010E0B1F5847F00D300210A4B58540131064B9980064B1B7813F0020F02D00222064B1A6010BC704700BF1482FF1FB3
:400D000068640040486400403082FF1F00E200E038B5074B1B782BB938BDFFF7BBFF0134A4B201E005460024285D0028F5D138BD1482FF1F15E0114B1B889BB2B3F5847FEB
:400D400002D300220D4B1A800C4A13889BB20C49CB5CDBB20B490B7013889BB201339BB21380064B1B889BB2074A1288934204D0064B1B7813F0040FDDD070471682FF1F8F
:400D80003082FF1F486400401882FF1F68640040054A137843F0100313701032137843F010031370704700BFA2430040054A137843F0080313701032137843F008031370B6
:400DC000704700BFA2430040024A137843F080031370704775640040014B1870704700BF05640040014B1870704700BF45640040014B1870704700BF25640040014B18706B
:400E0000704700BF25650040014B1870704700BF86640040014B1878704700BF66640040014B1878704700BF5564004008B501E0FFF7F6FFFFF7EEFF10F0100FF8D108BD3E
:400E400008B5134A137803F0C00343F0090313702032137843F001031370FF20FFF7BCFFFF20FFF7BFFF3220FFF7C2FF0420FFF7C5FF0020FFF7C8FF00F026F9054A13786E
:400E800043F01003137000F023F9FFF7CFFF08BD756400409664004008B5054B1B7823B9FFF7CEFF0122024B1A70FFF78DFF08BD1B82FF1F014B1870704700BF76640040E2
:400EC000024A137843F080031370704778650040014B1870704700BF04650040014B1870704700BF44650040014B1870704700BF24650040014B1870704700BF27640040C0
:400F0000014B1870704700BF84650040014B1878704700BF64650040014B1878704700BF5465004008B501E0FFF7F6FFFFF7EEFF10F0100FF8D108BD10B5134A137803F0DF
:400F4000C00343F009031370104C237843F001032370FF20FFF7BCFFFF20FFF7BFFF3220FFF7C2FF0420FFF7C5FF0020FFF7C8FF00F0AAF8237843F01003237000F0A8F82E
:400F8000FFF7D0FF10BD00BF786500409465004008B5054B1B7823B9FFF7CEFF0122024B1A70FFF78DFF08BD1C82FF1F014B1870704700BF79650040024A137843F0800359
:400FC0001370704779640040014B1870704700BF08650040014B1870704700BF48650040014B1870704700BF28650040014B1870704700BF27650040014B1870704700BFF5
:4010000087640040014B1878704700BF67640040014B1878704700BF5865004008B501E0FFF7F6FFFFF7EEFF10F0100FF8D108BD08B5144A137803F0C00343F009031370A2
:4010400002F21F12137843F001031370FF20FFF7BBFFFF20FFF7BEFF3220FFF7C1FF0420FFF7C4FF0020FFF7C7FF00F02DF8064A137843F01003137000F02AF8FFF7CEFF16
:4010800008BD00BF796400409764004008B5054B1B7823B9FFF7CCFF0122024B1A70FFF78BFF08BD1D82FF1F014B1870704700BF74640040000000000230800803D000BF6D
:4010C00001380046FCD17047EFF3108072B6704780F31088704700BFF8B514461D4606460F4600F015F810B920462946F8BD2046294600F00DF838B122462B46304639463F
:4011000000F09AFD0028EFD030463946F8BD00BF31F0004310B407D0104AA1F58014944206D8042010BC704710B9022010BC704701F1FF41094A01F5E0019142F1D9B3F5EB
:40114000801F01D20320EDE7054A934201D00020E8E7B0FA80F04009E4E700BFFFFFDF7F0000F07F2DE9F04F8BB004460D4600F055F8284B064693F900A00F46BAF1FF3FD7
:4011800012D022462B462046294600F05FFD834650B94FF000084FF000092046294642464B4600F02BFD20B9304639460BB0BDE8F08F194A0123CDF820B0CDE90445CDE96E
:4011C000024501920093BAF1000F15D042464B464046494600F0CAFBBAF1020FCDE906010CD100F085FF21230360089B63B9DDE906010BB0BDE8F08FCDE90689684600F041
:40120000D1F80028F1D1ECE700F072FF089B0360EDE700BFE480FF1F004200002DE9F0415F4E0C46B6460E407645054600F0988000290B46024674DD5FEA215E7FD0AEF202
:40124000FF3EC3F313031EF0010F43F4801363D100273E4603EBD2710B444FEA6E0E520016204FF4001174189C424FEAD2754FEA420202DC1B1B66180F44013805EB4303D2
:401280004FEA5101EFD1844620244FF0004109E020D003EBD275013C4FEA51012B444FEA420220D09E4201EB0C05F1DA002D05EB010C09DBB0469542A3EB060300D9013B74
:4012C0004646521B0844E4E7BCF1000FF2DB06F10108F0E7954217D8002D05EB010C49DB98460023ECE7134310D140087B1003F17F5303F50013FA0703EB0E57394648BFE1
:4013000040F00040BDE8F0813346C2E7411C35D000F001031844E8E75B0003EBD273520096E721F000460643ECD079BB8E46D30AAEF1150E5205002BF9D0DD0221D40021E4
:4013400000E001465B00DC0201F10100F9D5C0F1200422FA04F42343C1EB0E0E82406EE702460B4600F0D8F92A46234600F022F8BDE8F081BCF1000FA9DAB1E70137204656
:40138000B4E720244FF0FF310020E2E702460B4600F00EF802460B4600F0E8FAB2E700BF0000F07F0020704781F0004102E000BF83F0004330B54FEA41044FEA430594EAF3
:4013C000050F08BF90EA020F1FBF54EA000C55EA020C7FEA645C7FEA655C00F0E2804FEA5454D4EB5555B8BF6D420CDD2C4480EA020281EA030382EA000083EA010180EA80
:40140000020281EA0303362D88BF30BD11F0004F4FEA01314FF4801C4CEA113102D0404261EB410113F0004F4FEA03334CEA133302D0524263EB430394EA050F00F0A780CC
:40144000A4F10104D5F1200E0DDB02FA0EFC22FA05F2801841F1000103FA0EF2801843FA05F359410EE0A5F120050EF1200E012A03FA0EFC28BF4CF0020C43FA05F3C01868
:4014800051EBE37101F0004507D54FF0000EDCF1000C7EEB00006EEB0101B1F5801F1BD3B1F5001F0CD349085FEA30004FEA3C0C04F101044FEA445212F5800F80F09A8095
:4014C000BCF1004F08BF5FEA500C50F1000041EB045141EA050130BD5FEA4C0C404141EB010111F4801FA4F10104E9D191F0000F04BF01460020B1FA81F308BF2033A3F1D5
:401500000B03B3F120020CDA0C3208DD02F1140CC2F10C0201FA0CF021FA02F10CE002F11402D8BFC2F1200C01FA02F120FA0CFCDCBF41EA0C019040E41AA2BF01EB045137
:40154000294330BD6FEA04041F3C1CDA0C340EDC04F11404C4F1200220FA04F001FA02F340EA030021FA04F345EA030130BDC4F10C04C4F1200220FA02F001FA04F340EA31
:401580000300294630BD21FA04F0294630BD94F0000F83F4801306BF81F480110134013D4EE77FEA645C18BF7FEA655C29D094EA050F08BF90EA020F05D054EA000C04BF68
:4015C0001946104630BD91EA030F1EBF0021002030BD5FEA545C05D14000494128BF41F0004130BD14F580043CBF01F5801130BD01F0004545F0FE4141F470014FF0000047
:4016000030BD7FEA645C1ABF194610467FEA655C1CBF0B46024650EA013406BF52EA033591EA030F41F4002130BD00BF90F0000F04BF0021704730B54FF4806404F13204D0
:401640004FF000054FF0000150E700BF90F0000F04BF0021704730B54FF4806404F1320410F0004548BF40424FF000013EE700BF42004FEAE2014FEA31014FEA02701FBF4B
:4016800012F07F4393F07F4F81F06051704792F0000F14BF93F07F4F704730B54FF4607401F0004521F0004120E700BF50EA010208BF704730B54FF000050AE050EA01027B
:4016C00008BF704730B511F0004502D5404261EB41014FF4806404F132045FEA915C3FF4DCAE4FF003025FEADC0C18BF03325FEADC0C18BF033202EBDC02C2F1200300FABC
:4017000003FC20FA02F001FA03FE40EA0E0021FA02F11444C1E600BF70B54FF0FF0C4CF4E06C1CEA11541DBF1CEA135594EA0C0F95EA0C0F00F0DEF82C4481EA030621EA06
:401740004C5123EA4C5350EA013518BF52EA033541F4801143F4801338D0A0FB02CE4FF00005E1FB02E506F00042E0FB03E54FF00006E1FB03569CF0000F18BF4EF0010E27
:40178000A4F1FF04B6F5007F64F5407404D25FEA4E0E6D4146EB060642EAC62141EA55514FEAC52040EA5E504FEACE2EB4F1FD0C88BFBCF5E06F1ED8BEF1004F08BF5FEAEC
:4017C000500E50F1000041EB045170BD06F0004646EA010140EA020081EA0301B4EB5C04C2BFD4EB0C0541EA045170BD41F480114FF0000E013C00F3AB8014F1360FDEBF41
:40180000002001F0004170BDC4F10004203C35DA0C341BDC04F11404C4F1200500FA05F320FA04F001FA05F240EA020001F0004221F0004110EBD37021FA04F642EB0601BD
:401840005EEA430E08BF20EAD37070BDC4F10C04C4F1200500FA04F320FA05F001FA04F240EA020001F0004110EBD37041F100015EEA430E08BF20EAD37070BDC4F120057B
:4018800000FA05F24EEA020E20FA04F301FA05F243EA020321FA04F001F0004121FA04F220EA020000EBD3705EEA430E08BF20EAD37070BD94F0000F0FD101F0004640006A
:4018C00041EB010111F4801F08BF013CF7D041EA060195F0000F18BF704703F00046520043EB030313F4801F08BF013DF7D043EA0603704794EA0C0F0CEA135518BF95EA8C
:401900000C0F0CD050EA410618BF52EA4306D1D181EA030101F000414FF0000070BD50EA410606BF1046194652EA430619D094EA0C0F02D150EA013613D195EA0C0F05D18A
:4019400052EA03361CBF104619460AD181EA030101F0004141F0FE4141F470014FF0000070BD41F0FE4141F4780170BD70B54FF0FF0C4CF4E06C1CEA11541DBF1CEA135569
:4019800094EA0C0F95EA0C0F00F0A7F8A4EB050481EA030E52EA03354FEA013100F088804FEA03334FF0805545EA131343EA12634FEA022245EA111545EA10654FEA00264B
:4019C0000EF000419D4208BF964244F1FD0404F5407402D25B084FEA3202B61A65EB03055B084FEA32024FF480104FF4002CB6EB020E75EB030E22BFB61A754640EA0C00A5
:401A00005B084FEA3202B6EB020E75EB030E22BFB61A754640EA5C005B084FEA3202B6EB020E75EB030E22BFB61A754640EA9C005B084FEA3202B6EB020E75EB030E22BFCB
:401A4000B61A754640EADC0055EA060E18D04FEA051545EA16754FEA06164FEAC30343EA52734FEAC2025FEA1C1CC0D111F4801F0BD141EA00014FF000004FF0004CB6E725
:401A800011F4801F04BF01430020B4F1FD0C88BFBCF5E06F3FF6AFAEB5EB030C04BFB6EB020C5FEA500C50F1000041EB045170BD0EF0004E4EEA113114EB5C04C2BFD4EBBA
:401AC0000C0541EA045170BD41F480114FF0000E013C90E645EA060E8DE60CEA135594EA0C0F08BF95EA0C0F3FF43BAF94EA0C0F0AD150EA01347FF434AF95EA0C0F7FF4F1
:401B000025AF104619462CE795EA0C0F06D152EA03353FF4FDAE1046194622E750EA410618BF52EA43067FF4C5AE50EA41047FF40DAF52EA43057FF4EBAE12E74FF0FF3C14
:401B400006E000BF4FF0010C02E000BF4FF0010C4DF804CD4FEA410C7FEA6C5C4FEA430C18BF7FEA6C5C1BD001B050EA410C0CBF52EA430C91EA030F02BF90EA020F0020B8
:401B8000704710F1000F91EA030F58BF994208BF90422CBFD8176FEAE37040F0010070474FEA410C7FEA6C5C02D150EA013C07D14FEA430C7FEA6C5CD6D152EA033CD3D081
:401BC0005DF8040B704700BF8446104662468C461946634600E000BF01B5FFF7B7FF002848BF10F1000F01BD4DF808EDFFF7F4FF0CBF012000205DF808FB00BF4DF808EDEB
:401C0000FFF7EAFF34BF012000205DF808FB00BF4DF808EDFFF7E0FF94BF012000205DF808FB00BF4DF808EDFFF7CEFF94BF012000205DF808FB00BF4DF808EDFFF7C4FF25
:401C400034BF012000205DF808FB00BF4FEA410C7FEA6C5C02D150EA013C0AD14FEA430C7FEA6C5C02D152EA033C02D14FF0000070474FF0010070474FEA410212F50012E1
:401C800015D211D56FF47873B3EB625212D94FEAC12343F0004343EA505311F0004F23FA02F018BF404270474FF00000704750EA013005D111F0004008BF6FF00040704765
:401CC0004FF00000704700BF4A0011D212F5001211D20DD56FF47873B3EB62520ED44FEAC12343F0004343EA505323FA02F070474FF00000704750EA013002D14FF0FF30D7
:401D000070474FF0000070474FEA4102B2F1E04324BFB3F5001CDCF1FE5C0DD901F0004C4FEAC0024CEA5070B2F1004F40EB830008BF20F00100704711F0804F21D113F1DD
:401D40003872BCBF01F00040704741F480114FEA5252C2F11802C2F1200C10FA0CF320FA02F018BF40F001004FEAC1234FEAD32303FA0CFC40EA0C0023FA02F34FEA4303D2
:401D8000CCE77FEA625307D150EA01331EBF4FF0FE4040F44000704701F0004040F0FE4040F40000704700BF80F0004002E000BF81F0004142001FBF5FEA410392EA030F00
:401DC0007FEA226C7FEA236C6AD04FEA1262D2EB1363C1BFD218414048404140B8BF5B42192B88BF704710F0004F40F4000020F07F4018BF404211F0004F41F4000121F04E
:401E00007F4118BF494292EA030F3FD0A2F1010241FA03FC10EB0C00C3F1200301FA03F100F0004302D5494260EB4000B0F5000F13D3B0F1807F06D340084FEA310102F16D
:401E40000102FE2A51D2B1F1004F40EBC25008BF20F0010040EA03007047490040EB000010F4000FA2F10102EDD1B0FA80FCACF1080CB2EB0C0200FA0CF0AABF00EBC25071
:401E800052421843BCBFD0401843704792F0000F81F4000106BF80F400000132013BB5E74FEA41037FEA226C18BF7FEA236C21D092EA030F04D092F0000F08BF0846704758
:401EC00090EA010F1CBF0020704712F07F4F04D1400028BF40F00040704712F100723CBF00F50000704700F0004343F0FE4040F4000070477FEA226216BF08467FEA236309
:401F00000146420206BF5FEA412390EA010F40F4800070474FF0000304E000BF10F0004348BF40425FEA000C08BF704743F0964301464FF000001CE050EA010208BF7047E2
:401F40004FF000030AE000BF50EA010208BF704711F0004302D5404261EB41015FEA010C02BF84460146002043F0B64308BFA3F18053A3F50003BCFA8CF2083AA3EBC2533A
:401F800010DB01FA02FC634400FA02FCC2F12002BCF1004F20FA02F243EB020008BF20F00100704702F1200201FA02FCC2F1200250EA4C0021FA02F243EB020008BF20EA87
:401FC000DC7070474FF0FF3C06E000BF4FF0010C02E000BF4FF0010C4DF804CD4FEA40024FEA41037FEA226C18BF7FEA236C11D001B052EA530C18BF90EA010F58BFB2EB70
:40200000030088BFC81738BF6FEAE17018BF40F0010070477FEA226C02D15FEA402C05D17FEA236CE4D15FEA412CE1D05DF8040B704700BF844608466146FFE70FB5FFF775
:40204000C9FF002848BF10F1000F0FBD4DF808EDFFF7F4FF0CBF012000205DF808FB00BF4DF808EDFFF7EAFF34BF012000205DF808FB00BF4DF808EDFFF7E0FF94BF012060
:4020800000205DF808FB00BF4DF808EDFFF7D2FF94BF012000205DF808FB00BF4DF808EDFFF7C8FF34BF012000205DF808FB00BF42000ED2B2F1FE4F0BD34FF09E03B3EB8D
:4020C000126209D44FEA002343F0004323FA02F070474FF00000704712F1610F01D1420202D14FF0FF3070474FF00000704700BF014B1868704700BF4881FF1F0E4B70B524
:402100001E460E4C0025E41AA410A54204D056F8253098470135F8E702F028F9084B094C1E46E41AA4100025A54204D056F8253098470135F8E770BD7843000078430000CD
:40214000784300008043000010B5431E0A44914204D011F8014B03F8014FF8E710BD03460244934202D003F8011BFAE770472DE9F04788B0149F002B1E461299B8BF03F1B8
:40218000004327F02007B6BF1E4600232D23462F1446109DDDF84CA00B7003D0452F03D1013501E0032300E0022307AA049206AA03928DE828042246334600F001FD472FCB
:4021C000804602D1119BDB0728D5462F08EB050911D198F80030302B0AD10022002320463146FFF701FD18B9C5F10105CAF80050DAF8003099440022002320463146FFF7C1
:40220000F3FC08B9302202E0CDF81C9006E0079B994503D9591C07911A70F8E74046079B159AC8EB0303136008B0BDE8F087034673B50029B8BF494203F8022BB4BF2D2234
:402240002B22092942701ADD0DF1070216460A2591FBF5F405FB1411092C01F1300102F8011D2146F4DC3031541E02F8011CB4421A460AD214F8012B03F8012BF7E71A46AA
:402280003024214402F8024B5970101A02B070BD2DE9F04F91B00C46DDF8688016461F46054601F025FA03681846099300F0F4FB00230E93D8F800300A90073323F0070392
:4022C00003F1080294F81890D4F800B0C8F80020D3E90023C4E91223D4F84CA0D4F848802AF000430B934FF0FF32A74B40460B99FFF7ACFCA0B94FF0FF32A34B40460B993D
:40230000FFF786FC60B90022002340465146FFF775FC10B12D2384F843309C4B9C4A0AE04246534640465146FFF790FC002800F09281984B984AB9F1470F8CBF90469846DD
:40234000032323612BF0040323604FF0000A3DE0B9F1670F00F08A81B9F1470F00F0868123600193636800210DF13302059002920093424653460691CDF81090CDF80CE0D6
:402380002846FFF7F4FE09F0DF03472B804600F08481B9F1650F0D9900F28D8101394A4604F150000D91FFF742FF0E9A82468318012A236100F37C812268D10700F1788121
:4023C0009DF8333013B12D2384F84330009733460FAA2146284600F09FF9013002D14FF0FF3096E123685A0501D4236965E0B9F1650F40F2D580D4E9120100220023FFF793
:40240000F3FB78B30123654A31462846B8470130E5D00E9B0D9A9A420BDB2368D80708D423689B0740F111814FF0000804F1190906E10A9B099A31462846B8470130CED05E
:402440004FF0000804F11A090E9B013B9845E7DA01234A4631462846B8470130BFD008F10108F1E70D9B002B29DC01234B4A31462846B8470130B2D00D9B23B90E9B13B927
:402480002368D907CCD50A9B099A31462846B8470130A4D04FF0000904F11A0A0D9B5B42994509DA0123524631462846B847013095D009F10109F1E70E9B4246A7E00E9A66
:4024C000A36D9A42A8BF1A46002A914606DC4FF0000A29EAE97904F11A0B11E01346314642462846B8470130F1D178E701235A4631462846B84701303FF471AF0AF1010A34
:40250000A36DC9EB03029245F0DB08EB03090D9A0E9B9A420FDB2368DA070CD40E9B0D9A9844C9EB08089B1A9845A8BF9846B8F1000F08DC0FE00A9B099A31462846B84751
:402540000130EBD14BE743464A4631462846B84701303FF444AF4FF0000928EAE87804F11A0A09E00123524631462846B84701303FF435AF09F101090D9A0E9B9B1AC8EB88
:4025800003039945EEDB4BE7FFFFEF7F0A4200000E42000012420000164200001A4200000E9A012A01DCDB0738D50123424631462846B84701303FF412AF0A9B099A314619
:4025C0002846B84701303FF40AAFD4E9120100220023FFF709FB20B14FF0000804F11A090EE00E9B08F10102013B19E001234A4631462846B84701303FF4F1AE08F10108AD
:402600000E9B013B9845F1DB534604F1500231462846B84701307FF403AFE0E64246012331462846B8470130EED1D8E601234A4631462846B84701303FF4D1AE08F1010871
:40264000E3680F9A9B1A9845F0DBE0680F9B9842B8BF18465DE062680EA8531C0DF1340E4BF480637FF474AE062201E012B90122626075E6002106910DF133018DE80C00C6
:40268000236005904246CDF81090CDF80CE0029153462846FFF76BFD80460D9BD81C02DB626893421DDDA9F102095FFA89F970E60133236184E6B9F1660F14D100296368A4
:4026C00007DD216113B92268D2071DD501330B4419E013B92268D00701D5023313E0012311E04FF067090D9B0E9A934205DB22682361D10708D5013305E0002BD4BFC3F195
:4027000002030123134423610D9B4FF0000AA36556E611B0BDE8F08F2DE9F04791461F460A698B6806469342B8BF1346C9F8003091F843200C46DDF8208012B10133C9F83F
:4027400000302368990642BFD9F800300233C9F80030256815F0060510D104F1190A07E00123524639463046C04701301AD00135E368D9F800209B1A9D42F1DB94F84330B6
:402780002268003318BF012392060FD5E118302081F843005A1C94F845102244023382F8431003E04FF0FF30BDE8F08704F1430239463046C0470130F4D02268D9F80050DE
:4027C000E36802F00602042A08BF5D1B2269A3680CBF25EAE57500259342C4BF9B1AED184FF000091A344D4509D00123224639463046C0470130D5D009F10109F3E70020C9
:40280000BDE8F0872DE9F04317460A7E85B06E2A984606460C460C9B01F1430E00F0AE8011D8632A22D009D8002A00F0BB80582A40F0CA8081F84520834955E0642A1ED008
:40284000692A1CD0C0E0732A00F0B08009D86F2A2ED0702A40F0B8800A6842F020020A603EE0752A24D0782A3AD0ADE01A6801F14205111D1960136884F84230A8E021680C
:402880001A6811F0800F02D0111D196008E011F0400F02F10401196002D0B2F9003000E01368002B3CDA2D225B4284F8432037E021681A6811F0800F02D0111D196007E0BE
:4028C00011F0400F02F10401196001D0138800E01368227E5C496F2A14BF0A2208221BE078225A4984F845202268186812F0800F00F104051D6003D1550601D5038800E0AE
:402900000368D00744BF42F0200222601BB9226822F0200222601022002084F8430001E049490A226568002DA56008DB206820F0040020602BB9002D7DD175460CE0002B89
:4029400079D07546B3FBF2F002FB1033CB5C05F8013D03460028F5D1082A0BD12368DA0708D5236962689A42DEBF302305F8013C05F1FF35C5EB0E0323612EE008681A68C8
:4029800010F0800F496903D0101D1860136808E010F0400F02F104001860136801D0198000E0196000232361754616E01A68111D1960156800216268284600F0A5FE08B15C
:4029C000401B6060636804E004F1420584F8422001232361002384F84330CDF800803B4603AA21463046FFF797FE013002D14FF0FF3026E023692A4639463046C0470130BD
:402A0000F5D023689B0710D5002504F1190907E001234A4639463046C0470130E7D00135E368039A9B1A9D42F2DBE068039B9842B8BF184605E00B7804F1420584F842305E
:402A40008AE705B0BDE8F0831C4200002D4200000EB400B54FF402719CB0ADF814106FF00041049107914FF6FF711DAB02900690084853F8042BADF81610006802A901935B
:402A800001F038FA029B00221A701CB05DF804EB03B070474881FF1F034613F8012B002AFBD1181A013870472DE9F74F03690C6980469C427FDC013C01F114074FEA840E60
:402AC00000F1140606EB0E0357F82450019356F824300135B3FBF5F507EB0E09C5B34FF0000A3846B446D34650F8043B9AB205FB02A21B0C4FEA124A05FB03A392B2C2EBDD
:402B00000B0BBCF800204FEA134A5A441FFA83FBDCF800308145CBEB134303EB224392B242EA03424FEA234B4CF8042BDCD256F80E306BB9019B043B9E421A4602D3C8F8DA
:402B4000104005E01268043B002AF8D1013CF3E7404600F0F4FF00282BDB304601354FF0000E57F8042B036891B2C1EB0E0E120C99B27144C2EB134303EB214389B24FEAF2
:402B8000234EB94541EA034340F8043BE9D256F8242006EB840362B9043B9E421A4602D3C8F8104005E01268043B002AF8D1013CF3E7284600E0002003B0BDE8F08F00008D
:402BC0002DE9F04F456A95B08246219CCDE9022345B9102000F090FDCAF82400456085600560C560DAF82430196859B15A68012393404A608B60504600F0C9FDDAF8243016
:402C000000221A60039BA04A002BBDBF01232360039B0023BCBF23F000430393DDF80C80A8BF236028F000431B0D1B0593421DD142F20F73209A1360029B43B9934A944B11
:402C4000C8F31300002814BF1846104600E09048229B002B00F04685C37813B100F1080300E0C31C229A136000F03CBDDDE902450022002320462946FEF7B6FF074658B183
:402C8000209A01231360229B002B00F01E8581481860013800F026BD12AB019313AB009322462B46504600F0C5FFC8F30A56049056B1C5F3130343F07F51204641F44011C3
:402CC000A6F2FF3611971DE0139B129E1E4406F23243202B0ADD029A06F21240C3F1400322FA00F008FA03F3184304E0C3F12000029B03FA00F0FEF799FC0123A1F1F871DC
:402D0000013E11930022644BFEF752FB58A3D3E90023FEF701FD58A3D3E90023FEF74AFB044630460D46FEF791FC55A3D3E90023FEF7F2FC02460B4620462946FEF73AFBD5
:402D400004460D46FEF798FF00228346002320462946FEF753FF58B15846FEF777FC02460B4620462946FEF73FFF08B90BF1FF3BBBF1160F0DD8DDE90223484901EBCB016F
:402D8000D1E90001FEF758FF30B10BF1FF3B002300E00123109300E01090129B9E1B731E079343BFC3F10008002307934FF00008BBF1000F06DB079BCDF82CB05B44079340
:402DC000002705E00023CBEB0808CBF100070B931E9B092B28D8052BC4BF043B1E931E9BC8BF0025A3F10203D8BF0125032B20D8DFE803F0060E0204012302E0012308E026
:402E000000230A931F9B002B1DDD9946059321E000230A931F9B0BEB030909F10103012B0593B8BF012315E0012500231E930A9501E001230A934FF0FF390022CDF8149070
:402E400012231F9206E04FF001094B46CDF81490CDF87C90DAF8244000226260042101F114029A421CD86268490001326260F6E761436F63A787D23FB3C8608B288AC63FA4
:402E8000FB799F501344D33F0000F07F3E420000474200001B4200000000F83F584200006168504600F03EFCDAF8243020601B680693059B0E2B00F25B81002D00F05881B8
:402EC000DDE90234BBF1000FCDE90E3430DD9F4A0BF00F034FEA2B1502EBC303E80618CBCDE908340CD5DDE90E01994B05F00F05D3E90823FEF73AFD0324CDE9020100E0BB
:402F00000224934E6DB1E90708D5DDE90801D6E90023FEF701FCCDE9080101346D100836F0E7DDE90823DDE90201FEF71FFD20E0CBF1000505B3DDE90E01844B05F00F0288
:402F400003EBC203D3E90023FEF7E6FBCDE902017F4E2D110023022455B1EA0705D5D6E90023FEF7D9FB013401236D100836F3E71BB1CDE9020100E00224109BE3B1DDE9E2
:402F800002560022734B28463146FEF737FE98B1059B8BB1B9F1000F40F3E6800BF1FF330893314600226C4B2846FEF7B5FB0134CDE902014E4602E0059ECDF820B0204625
:402FC000FEF744FBDDE90223FEF7A6FB634B0022FEF7F0F9A1F1507304460C931D46D6B9DDE9020100225E4BFEF7E2F922460C9BCDE90201FEF720FE002840F03F820C9941
:40300000224601F10043DDE90201FEF7F7FD002840F02B82A8E00A9A4C4B711E002A49D003EBC103D3E9002300204E49FEF79EFC22462B46FEF7BCF9CDE90C01069CDDE922
:403040000201FEF719FE0546FEF700FB02460B46DDE90201FEF7ACF9DDE90C23303504F8015BCDE90201FEF7C9FD002840F01D83DDE9022300203749FEF79AF9DDE90C23E4
:40308000FEF7BCFD002840F0D180069BE31AB3426ADADDE90C0100222F4BFEF73DFB0022CDE90C01DDE902012B4BFEF735FBCDE90201C4E703EBC1012246D1E900012B4655
:4030C000FEF72AFB069BCDE90C011D469C19DDE90201FEF7D1FD0646FEF7B8FA02460B46DDE90201FEF764F9303605F8016BAC42CDE902014FF0000222D11A4BDDE90C0125
:40310000FEF758F902460B46DDE90201FEF794FD002840F08B80DDE90C2300201149FEF747F902460B46DDE90201FEF767FDD8B114F8013C621E302B40F0B7821446F7E751
:40314000054BFEF7E9FACDE90201C0E758420000304300000000F03F0000244000001C40000014400000E03FDDE90E34CDE90234139B002B7CDBBBF10E0F79DCAB4B03EB32
:40318000CB03D3E900671F9B002B14DA059B002B11DC40F06C810022A54B30463946FEF7BBFADDE90223FEF73DFD059D2E46002840F05F8165E1069CDDE9028932463B462B
:4031C00040464946FEF7D2FBFEF756FD0546FEF73DFA32463B46FEF79FFA0B46024649464046FEF7E5F805F1300E069B04F801EBC3EB040E059B73452DD102460B46FEF7D1
:40320000D9F88046894602460B4630463946FEF7F5FC78B942464B4630463946FEF7E4FC002800F04482EB0704D440E2DDF820B000E01C4614F8012C631E392A07D1069A5A
:403240009A42F6D1069930220BF1010B0A701A7801321A702BE20022764BFEF75DFA0022002380468946FEF7BFFC0028A6D01EE20A9A002A2BD01E9A012A0ADC119A12B185
:4032800003F2334302E0129BC3F136033D46444613E0059B5D1EAF42BFBF0B9BEA1B9B180B93059BB6BF2F467D1B0025002BA7BF4446059BC3EB08040023079A01211A44A1
:4032C00050469844079200F001FB064602E03D4644460A9E5CB1079B002B08DDA342A8BF2346079AC3EB0808E41AD31A0793002F1DDD0A9BABB18DB131462A46504600F0C7
:403300007FFB049A01460646504600F0E8FA04990890504600F03BFA089B04937A1B06D000E03A460499504600F06AFB04900121504600F0CBFA0B9B05465BB31A46014656
:40334000504600F05DFB1E9B0546012B18DC029B83B9039BC3F3130373B9039B23F000473F0D3F054FB1079B08F1010801330793012702E0002700E0029F0B9B73B100E086
:4033800000272B6905EB8303186900F052FAC0F1200004E01E9B012BD9DD0B9F0120079B184410F01F0008D0C0F12003042B02DDC0F11C0002E006D018461C30079B804498
:4033C000034404440793B8F1000F05DD42460499504600F063FB0490079B002B05DD29461A46504600F05AFB0546109B23B32946049800F0A4FB00281EDA00230A220499A2
:40340000504600F0DBF90A9B0BF1FF3B0490002B00F05F81314600230A22504600F0CEF9B9F1000F06463FDC3BE000BF584200000000144000002440059B002B2BDC1E9BDE
:40344000022B28DDDDF81490B9F1000F11D129464B460522504600F0B1F901460546049800F06DFB00280CDC03E0354600E000252E461F9B069C6FEA030B09E03546DDF846
:4034800020B0069B069A5C1C312313700BF1010B05960026F7E00A9BDDF8149023B9069CB2E01E9B022BCFDC002C05DD31462246504600F0F3FA06469FB17168504600F0F2
:4034C00031F90446326906F10C01023292000C30FEF73AFE01222146504600F0DFFA059000E00596029B069F03F00103079329460498FFF7D9FA3146044600F13008049864
:4035000000F01DFB059A02902946504600F033FBC36802463BB901460A90049800F00FFB0A9A034600E00123114650460A9300F02EF90A9B53B91E9A42B9079A32B9B8F126
:40354000390F2AD0029B002B1CDC1DE0029A002A04DB1BD11E9ACAB9079ABAB9002B13DD01220499504600F099FA2946049000F0E6FA002803DC07D118F0010F04D0B8F131
:40358000390F0AD004F131087C1C0CE0002B07F101040BDDB8F1390F03D139233B70013756E008F1010887F800806CE0069B2746E31A4B4504F8018C3BD000230A22049985
:4035C000504600F0FBF8059B04909E424FF00A024FF000033146504604D100F0EFF80646059084E700F0EAF8002306460A220599504600F0E3F8059079E700230A2204995F
:40360000504600F0DBF8049029460498FFF74CFA069B00F1300804F8018BE31A4B45ECDB069B0596B9F1010FACBF4B4401331F46002601220499504600F030FA294604908E
:4036400000F07DFA002803DC15D118F0010F12D03C4614F8013C621E392B09D1069B934204D10BF1010B3123069A02E01446F0E70133137007E03C4614F8013C621E302BD5
:4036800001D11446F8E72946504600F080F8059B6BB12EB19E4203D03146504600F077F80599504600F073F801E0DDF820B00499504600F06CF80023209A23700BF10103CC
:4036C0001360229B1BB11C6001E008480AE0069808E0B9F1000F3FF7E2AE1E9B022B7FF7DEAEB1E615B0BDE8F08F00BF1A420000004870474C81FF1F024B0146186800F0C1
:4037000041BB00BF4881FF1F10B5C9B202449042034605D01C7801308C42F8D1184610BD002010BD70B5456A04460E463DB91020FFF7E2FF6062456085600560C560656AE9
:40374000EB6843B1636ADB6853F8260078B1026843F8262017E021220421204600F0B8FA636AE860DB68002BECD1002070BD012101FA06F56A1D9200204600F0A9FA002827
:40378000F3D04660856000230361C36070BD70B5446A06460D463CB91020FFF7ADFF7062446084600460C4603DB1736A6A68DB6853F82210296043F8225070BD2DE9F041C2
:4037C00006460C460D691F4601F1140E0023DEF80000013381B202FB0171000C0F0C02FB007089B201EB00419D424FEA10474EF8041BECDCD7B1A3689D4212DB6168304637
:403800000131FFF78FFF8046226904F10C01023292000C30FEF798FC21463046FFF7B7FF444604EB850301355F6125612046BDE8F081030C1B0413B90004102300E000233E
:4038400010F07F4F04BF0002083310F0704F04BF0001043310F0404F04BF80000233002803DB420003D5581C70471846704720207047036813F007020BD0D90722D49A0799
:403880004BBF5B089B08036003604CBF01200220704799B209B91B0C102213F0FF0F04BF1B0A0832190704BF1B090432990704BF9B080232D90702D45B0805D00132036099
:4038C00010467047002070472020704710B50C460121FFF727FF01224461026110BD2DE9F74F14460A69236988469A42BEBF0B46A0461C46D8F81070D4F81090D8F8083067
:40390000D8F8041007EB09069E42C8BF0131FFF709FF00F114052B4605EB860C0022634502D243F8042BFAE704F1140208F1140102EB890301EB87070093009B0192934283
:4039400057D9B2F800B0BBF1000F23D08946AE464FF0000859F8044BBEF800A0A3B20BFB03A34FEA144ADEF8004043444FEA14480BFB0A84F24604EB13449BB243EA044372
:403980004F454FEA14484AF8043B01D9D646E1E7CEF80480019B0432B3F802A0BAF1000F21D02C4689462B684FF00008B9F800E0B4F802B09BB20AFB0EBEA346F04443EA19
:4039C00008434BF8043B59F8043BB4F804E01B0C0AFB03E34F4503EB18434FEA134801D95C46E3E763600435A7E75CF8043D13B9013E002EF9DC066103B0BDE8F08F0000A6
:403A00002DE9F843154612F0030206460F4607D0214C013A002354F82220FFF7CFFE0746AD1036D0746A3CB91020FFF765FE7062446084600460C460D6F82480D8F8084067
:403A40004CB940F271213046FFF740FF04460023C8F8080003604FF00008EB070AD5394622463046FFF73BFF814639463046FFF78EFE4F466D100CD0206808B10446ECE70B
:403A8000224621463046FFF72AFF2060C0F80080F4E73846BDE8F883204300002DE9F0470C460746914626694FEA621A56444968A368751CAB4202DA01315B00FAE738466B
:403AC000FFF730FE002380461A4600F11401534503DA41F823200133F9E72AEAEA73206901EB830319F01F0904F1140101EB800E14D0C9F1200C002208689A4600FA09F0FE
:403B0000024343F8042B51F8042B8E4522FA0CF2F2D8CAF8042042B1B51C06E0043B51F8042B8E4543F8042FF9D8013D3846C8F810502146FFF72BFE4046BDE8F0870369DE
:403B40000A6910B59B1A11D192001430143183180A4453F8044D52F8041D8C4202D007D3012010BD9842F4D3002010BD184610BD4FF0FF3010BD2DE9F8430C4607461146C8
:403B800020461546FFF7DBFF061E08D131463846FFF7C8FD012303614661BDE8F883BCBF23462C4638466168BABF1D4601260026FFF7B8FD2B69C660266905F1140904F1B6
:403BC000140101EB860709EB830800F114054FF0000C51F8042B59F8044B93B29C44A3B2240CC3EB0C03C4EB124202EB23429BB24FEA224CC84543EA02428E4645F8042BDD
:403C0000E7D8BE450ED25EF8041B8AB26244131403EB114392B242EA03424FEA234C45F8042BEEE755F8043D0BB9013EFAE70661BDE8F8832DE9F3411C4601219046089E41
:403C4000099DFFF76FFDC4F31302C4F30A5407460CB142F480120192B8F1000F19D002A840F8088DFFF705FE009B48B1019AC0F1200102FA01F10B43C2407B61019200E057
:403C80007B61019B002B14BF02210121BB61396107E001A8FFF7EDFD019B01217B613961203034B1A4F2334404443460C0F1350009E0A0F2324007EB810330601869FFF781
:403CC000B8FDC0EB41102860384602B0BDE8F08138B502FB01F4214600F054F8054618B122460021FEF73BFA284638BD38B50546002944D051F8043C0C1F002BB8BFE418D2
:403D000000F017FA1E4A1368114613B96360146030E0A3420DD92268A018834201BF18685B681218226063600C6023E0A24203D813465A68002AF9D118681918A1420BD144
:403D40002168014458188242196013D110685268014419605A600DE002D90C232B6009E021686018824201BF106852680918216062605C602846BDE8384000F0DBB938BDF4
:403D80002482FF1F70B5CD1C25F0030508350C2D38BF0C25002D064601DBA94202D90C23336046E000F0C5F9234B1C681A462146A1B10B685B1B0ED40B2B03D90B60CC188E
:403DC000CD501EE08C420BBF63684B681360636018BF0C4615E00C464968E9E7174C23681BB9304600F07AF920602946304600F075F9431C18D0C41C24F00304A0420DD10B
:403E00002560304600F096F904F10B00231D20F00700C31A0ED05A42E25070BD211A304600F05CF90130EBD10C233360304600F081F9002070BD00BF2482FF1F2082FF1FE6
:403E40002DE9F0478E6882469E420C46914698463ED88A8912F4906F3AD02568096902236F1A656905EB450595FBF3F57B1C43449D4238BF1D4653050FD52946FFF782FF72
:403E8000064698B13A462169FEF75EF9A38923F4906343F08003A38113E02A4600F04BF9064670B921695046FFF720FF0C23CAF80030A3894FF0FF3043F04003A381BDE8CC
:403EC000F08726613E44266046466561ED1BA560464528BF464649463246206800F00EF9A36800209B1BA36023681E442660BDE8F08700002DE9F04F9DB003938B89804654
:403F00001C060D4616460DD50B695BB94021FFF739FF2860286118B90C23C8F80030CDE040236B610023099320238DF82930DFF89CB130238DF82A3037463C4614F8013B5D
:403F40001BB9B7EB060910D003E0252BF9D02746F3E74B46324629464046FFF771FF013000F0A780099B4B4409933B78002B00F0A08000234FF0FF3204930793059206933C
:403F80008DF853301A930126052221784E48FFF7BBFB671C049B38B14B4A3C46801A06FA00F018430490EFE7D90644BF20228DF853201A0744BF2B228DF8532022782A2A3F
:403FC00003D0079A00210A200BE0039A111D12680391002A10DA524243F00200079204900BE027463B780134303B092B03D800FB02320121F5E701B107923B782E2B1ED107
:404000007B782A2B0AD1039B02371A1D1B680392002BB8BF4FF0FF33059310E0002319460593781C0A2407463A780130303A092A03D804FB01210123F5E703B10591032288
:4040400039782248FFF760FB40B14023CBEB000003FA00F0049B013718430490397806221B487E1C8DF82810FFF74EFB88B1194B33B9039B073323F007030833039314E002
:4040800003AB00932A46144B04A94046FEF700F907E003AB00932A460F4B04A94046FEF7B1FBB0F1FF3F824603D0099B5344099342E7AB895B0601D4099801E04FF0FF3035
:4040C0001DB0BDE8F08F00BF584300005E4300006243000091220000413E000038B5064C0023054608462360FCF75EFC431C02D1236803B12B6038BD3883FF1F884210B5D9
:4041000001EB020301D8421E0BE09842FBD28118D21AD34204D013F8014D01F8014DF8E710BD994204D011F8014B02F8014FF8E710BD70477047F8B5074615460E4621B91E
:404140001146BDE8F840FFF71DBE1AB9FFF7CEFD2846F8BD00F015F885420ED929463846FFF710FE044650B131462A46FDF7ECFF31463846FFF7BAFD01E03046F8BD2046C2
:40418000F8BD51F8040C0028BEBF091851F8043CC01804387047000000000000000000006161610025730A000D0A00002566202566202566202020202564202564202564BF
:4041C0000A000000405100403000F0510040100000000140800400050140000B00140140000800400140000A004C01400002005001402000800401406408004880000000EC
:4042000073717274000000004300494E4600696E66004E414E006E616E00300030313233343536373839414243444546003031323334353637383961626364656600496E52
:4042400066696E697479004E614E00504F534958002E000000000000000000000000F03F000000000000244000000000000059400000000000408F40000000000088C34027
:4042800000000000006AF8400000000080842E4100000000D01263410000000084D797410000000065CDCD41000000205FA00242000000E876483742000000A2941A6D426F
:4042C000000040E59C30A2420000901EC4BCD64200003426F56B0C430080E03779C3414300A0D8855734764300C84E676DC1AB43003D9160E458E143408CB5781DAF1544BD
:4043000050EFE2D6E41A4B4492D54D06CFF08044F64AE1C7022DB544B49DD9794378EA4405000000190000007D000000000000000080E03779C34143176E05B5B5B89346A9
:40434000F5F93FE9034F384D321D30F94877825A3CBF737FDD4F1575232D302B2000686C4C0065666745464700000000F8B500BFF8BC08BC9E4670474D000000250A0000B0
:40438000F8B500BFF8BC08BC9E46704729000000A0430000C880FF1FC0000000B801000000000000FF0000004083FF1F0000E02EC05D00001800000000366E0101000000CA
:4043C0000000000000000000000000000000000000000000000000000000000000000000084200000000000000000000000000000000000000000000000000000000000073
:404400000000000000000000000000000000000000000000000000000000000000000000E880FF1F514200005D4300005D4300005D4300005D4300005D4300005D430000A3
:404440005D4300005D4300005D430000FFFFFFFFFFFFFFFFFFFFFFFFFFFF00000000000000000000000000000000000000000000000000000000000000000000000000006A
:4044800000000000000000000000000000000000000000000000000000000000000000000000000000000000000000000000000000000000000000000000000000000000FC
:4044C00000000000000000000000000000000000000000000000000000000000000000000000000000000000000000000000000000000000000000000000000000000000BC
:40450000000000000000000000000000000000000000000000000000000000000000000000000000000000000000000000000000000000000000000000000000000000007B
:40454000000000000000000000000000000000000000000000000000000000000000000000000000000000000000000000000000000000000000000000000000000000003B
:020000040003F7
:0200000480007A
:40000000085200400364004003650040120401403405014060060140460701406208014039090140611401404F150140581601404E170140551801404B1901400C1B014038
:4000400003400140054101400B420140054301400444014004450140034601400447014003480140134901400C4C01400C4D01400950014001510140048008100914118062
:400080001808190860C36166860D870D880F840D853886720A050F01160A2A092E062F023004320C33013401350236033E55580459045B045C105F010208052007A00A2078
:4000C0000E591008114014101682171118911B201D201E2A1F02222023102514260227502B012C102D202E062F02360437A13A483B043C803D083E5146084D014F145701A1
:4001000068086940764080108C409B80AB80C072C2F4C4F3CAF8CCF0CEF8D020D220E61000020215030208E71080184419021A2A1F01270128E72C212E4A30073102328003
:400140003460361837013E403F40402341044205440146C047E0482849FF4AFF4BFF4C624DA04EF04F41500C5405580459045A045B045C145D145F016640670269106A30C5
:400180006B106D106E106F1283028401870C8A1A8C028E049004920A9305A408A605A701AC10B001B102B21EB301B508B704BF04C003C502C801C9FFCAFFCBFFCDA0D0084E
:4001C000D405D804D904DA04DB04DD02DF01E080E240E340E440E640E840EA40EC40EE40001402C0030104200501068008800A810E84100211041510178018101A401D891C
:400200001E14200422452440268028202F20320133013620374039043A093F024220448045A848104E025602572058025A485C405D096F0E82019101931496359BC09D20C7
:400240009E809F20A134A237A301A440A608AE12B320B401C057C258C4C5CA42CC31CE83D0F2D210D6DBE204EA80EE800210040E050807050D2011021304140A151016045D
:40028000180819041A051B0A1C021E051F1A2C0E301E311E32013301352038023E013F1040614103450C46BE480D49FF4AFF4BFF4EF04F44500C54015604580459045A048B
:4002C0005B045C225D335F0166C06A406B02841C856C86028703881089318B0E8F1390099210940C96119E039F4CA414A708A810A931AA0CAB46B130B34AB50FB61FB902E4
:40030000BB28BF01C004C504C9FFCA07CBFFCC40CD20CEF0CF05D008D280D804D904DA04DB04DC33DD03DF01E040E1A8E240E32000240640072009080A810E220F041024BE
:4003400017401A011D011E201F0420142109244025042748280429262B4032403619374038943C803F0441014588481049044D204F0850405180546057405CA05D025F0863
:400380006780724082409780B340C036C2EDC486CA06CCF8CE5ED051D220D6F0D880EC10EE80060109020A040E01120415031A021E02210329013003320433033E05406025
:4003C000410345D24610480B49FF4AFF4BFF4DA04F0450185405580459045A045B045C205D225F01604062C06440654066C068C06AC06CC06EC0810182088435860287019A
:400400008C378F149411950196029B019C249E029F02A302A407A728AB24AF18B00FB101B302B430B530B70CB802B902BE01BF54C004C602C804C9FFCAFFCBFFCDA0D00840
:40044000D418D604D804D904DA04DB04DC41DD41DF01E080E240E340E440E640E840EA40EC40EE400030018405400680071009010A080B020F121404172819041A401D02BC
:400480001E0421042204251026802760284029202E062F0A31083614374039203D883E01401045024810492151105680588059055F01640466418131820185108A808E4021
:4004C000910492019313950898C099C09A429B189E80A14CA214A30BA980AC04AE08B010B201B320C0B7C2ABC420CAF5CC72CED4D082D204D68BD8B0E003E280E601EA047B
:40050000EE0A00100104033209010B320E14140215201604170D19021B251C081E042201260128042A0A2D0833103401350F361E37203E1056025713580459045B045C110B
:400540005D405F018404854486028721880789018C078D068FA09005920293089C019E029F08A180A512A610A721AA10AD26AE08AF51B1F0B210B301B40FB506B708B82022
:40058000BA80BE14BF40C002C720C820C9FFCAFFCBFFCDA0D008D804D904DA04DC04DF01E080E240E340E440E640E840EA40EC40EE4000580540068008010A820F12100222
:4005C00013141716180419081A011D401F202040229825C0271A28112A012E8031803302371838503A083F124004500252015E026C106D106E8074407520772080028301FB
:40060000850C868088A089048D108F0190109282931494209510962198409A429B049C229D289E089F20A114A215A30BA442A648AC40B010B620C097C2A9C477CA1BCC6914
:40064000CEAED004D680E202E408E607EE0802080501060208020D040E02112012081315140215401A021B501C04210822012314260129102B2C2F023001310232093378A4
:4006800034043501360237043E554020410146D04721483849FF4AFF4BFF4DA04F0450185280580459045A045B045C205D205F01604062C06440654066C068C06AC06CC053
:4006C0006EC084148608870188068A188D028E0A9210940695019608A201A406A608A901AE01B001B41EB703B980BA20BE01D804D904DB04DC33DF01000401A0048405A09B
:400700000640088009880A800C110D080E410F0810111302170619201B021C101D801F2122402621272229202E802F443108360A372038843C403D08460A4A014B8056021F
:4007400057196A606B0476808210831087228A608B018C108F0190C492019308968097049C809D209F20A10CA208A304A601A820AB04AE10B248B501C0F7C2FCC43DCAB421
:40078000CCE2CE5AD030E2A0E488EC80EE408201860287049704A201A602AA40AF2AB208E001E440E8A833183580CC700F019D809F10A708C2805004578080048D089D80E3
:4007C0009F10A708AB01D460E680E8809F10A108A708B180B38071087620DC01DE0463209E20A508D8029E20A508A7109E20A710B508EC089F10A108A7082220570171088A
:40080000740183108620870888019F10A108A301A708AF01C810D620DC80DE20E220EE1058406302660484408C018F109E20A710D401D602D801E00A70017F0282048F022A
:4008400090029E04AE20B301DC01DE04E402E801001F01010A170B010C0D0D01101F1A171C0D003F01FF40000C3C00C2040000E30010000008C0000000E7231833180C0075
:400880003F440000031C00E1028000001C0823001F00200440382C1F0FC0100000002808000040006002000000D2001023FFFFFF00A00004180080000000000004040404E7
:4008C000441100014000C0004040C000C000C000C000C00000000000000000000000000000000000807070000000000000FFFF00FF000000003F3F0034000000008282004F
:400900008000000008000008080008000000000000000000000000000000000000000000000000000000000000000000000000000000000000000000000000000000000017
:400940000000000000000000000000000000000000000000000000000000000000000000000000000000000000000000000000000000000000000000000000000000000077
:400980000000000000000000000000000000000000000000000000000000000000000000000000000000000000000000000000000000000000000000000000000000000037
:4009C00000000000000000000000000000000000000000000000000000000000000000000000000000000000000000000000000000000000000000000000000000000000F7
:400A000000000000000000000000000000000000000000000000000000000000000000000000000000000000000000000000000000000000000000000000000000000000B6
:0200000490006A
:0400000000004005B7
:0200000490105A
:04000000BC90ACAF55
:0200000490303A
:02000000944F1B
:0200000490402A
:4000000000000000000000000000000000000000000000000000000000000000000000000000000000000000000000000000000000000000000000000000000000000000C0
:400040000000000000000000000000000000000000000000000000000000000000000000000000000000000000000000000000000000000000000000000000000000000080
:400080000000000000000000000000000000000000000000000000000000000000000000000000000000000000000000000000000000000000000000000000000000000040
:4000C0000000000000000000000000000000000000000000000000000000000000000000000000000000000000000000000000000000000000000000000000000000000000
:0200000490501A
:0C00000000012E16106900012E33A4B878
:00000001FF